{
  "contractName": "Voting",
  "abi": [
    {
      "inputs": [],
      "stateMutability": "nonpayable",
      "type": "constructor"
    },
    {
      "inputs": [],
      "name": "admin",
      "outputs": [
        {
          "internalType": "address",
          "name": "",
          "type": "address"
        }
      ],
      "stateMutability": "view",
      "type": "function",
      "constant": true
    },
    {
      "inputs": [
        {
          "internalType": "uint256",
          "name": "",
          "type": "uint256"
        }
      ],
      "name": "candidates",
      "outputs": [
        {
          "internalType": "uint256",
          "name": "id",
          "type": "uint256"
        },
        {
          "internalType": "string",
          "name": "name",
          "type": "string"
        },
        {
          "internalType": "uint256",
          "name": "voteCount",
          "type": "uint256"
        }
      ],
      "stateMutability": "view",
      "type": "function",
      "constant": true
    },
    {
      "inputs": [],
      "name": "candidatesCount",
      "outputs": [
        {
          "internalType": "uint256",
          "name": "",
          "type": "uint256"
        }
      ],
      "stateMutability": "view",
      "type": "function",
      "constant": true
    },
    {
      "inputs": [
        {
          "internalType": "address",
          "name": "",
          "type": "address"
        }
      ],
      "name": "voters",
      "outputs": [
        {
          "internalType": "bool",
          "name": "",
          "type": "bool"
        }
      ],
      "stateMutability": "view",
      "type": "function",
      "constant": true
    },
    {
      "inputs": [
        {
          "internalType": "string",
          "name": "name",
          "type": "string"
        }
      ],
      "name": "addCandidate",
      "outputs": [],
      "stateMutability": "nonpayable",
      "type": "function"
    },
    {
      "inputs": [
        {
          "internalType": "uint256",
          "name": "candidateId",
          "type": "uint256"
        }
      ],
      "name": "vote",
      "outputs": [],
      "stateMutability": "nonpayable",
      "type": "function"
    },
    {
      "inputs": [
        {
          "internalType": "uint256",
          "name": "candidateId",
          "type": "uint256"
        }
      ],
      "name": "viewResults",
      "outputs": [
        {
          "internalType": "uint256",
          "name": "",
          "type": "uint256"
        }
      ],
      "stateMutability": "view",
      "type": "function",
      "constant": true
    },
    {
      "inputs": [
        {
          "internalType": "uint256",
          "name": "candidateId",
          "type": "uint256"
        }
      ],
      "name": "getCandidate",
      "outputs": [
        {
          "internalType": "uint256",
          "name": "",
          "type": "uint256"
        },
        {
          "internalType": "string",
          "name": "",
          "type": "string"
        },
        {
          "internalType": "uint256",
          "name": "",
          "type": "uint256"
        }
      ],
      "stateMutability": "view",
      "type": "function",
      "constant": true
    },
    {
      "inputs": [],
      "name": "getTotalCandidates",
      "outputs": [
        {
          "internalType": "uint256",
          "name": "",
          "type": "uint256"
        }
      ],
      "stateMutability": "view",
      "type": "function",
      "constant": true
    },
    {
      "inputs": [],
      "name": "getAllCandidates",
      "outputs": [
        {
          "internalType": "uint256[]",
          "name": "",
          "type": "uint256[]"
        },
        {
          "internalType": "string[]",
          "name": "",
          "type": "string[]"
        },
        {
          "internalType": "uint256[]",
          "name": "",
          "type": "uint256[]"
        }
      ],
      "stateMutability": "view",
      "type": "function",
      "constant": true
    }
  ],
  "bytecode": "0x60806040523480156200001157600080fd5b50336000806101000a81548173ffffffffffffffffffffffffffffffffffffffff021916908373ffffffffffffffffffffffffffffffffffffffff160217905550620000986040518060400160405280600f81526020017f5473686572696e6720546f6267617900000000000000000000000000000000008152506200017060201b60201c565b620000de6040518060400160405280600e81526020017f4c6f646179205473686572696e670000000000000000000000000000000000008152506200017060201b60201c565b620001246040518060400160405280600c81526020017f50656d612043686577616e6700000000000000000000000000000000000000008152506200017060201b60201c565b6200016a6040518060400160405280600c81526020017f446f726a692057616e67646900000000000000000000000000000000000000008152506200017060201b60201c565b620004cc565b60008054906101000a900473ffffffffffffffffffffffffffffffffffffffff1673ffffffffffffffffffffffffffffffffffffffff163373ffffffffffffffffffffffffffffffffffffffff161462000201576040517f08c379a0000000000000000000000000000000000000000000000000000000008152600401620001f8906200035e565b60405180910390fd5b600360008154809291906200021690620003d1565b91905055506040518060600160405280600354815260200182815260200160008152506002600060035481526020019081526020016000206000820151816000015560208201518160010190805190602001906200027692919062000287565b506040820151816002015590505050565b82805462000295906200039b565b90600052602060002090601f016020900481019282620002b9576000855562000305565b82601f10620002d457805160ff191683800117855562000305565b8280016001018555821562000305579182015b8281111562000304578251825591602001919060010190620002e7565b5b50905062000314919062000318565b5090565b5b808211156200033357600081600090555060010162000319565b5090565b60006200034660228362000380565b915062000353826200047d565b604082019050919050565b60006020820190508181036000830152620003798162000337565b9050919050565b600082825260208201905092915050565b6000819050919050565b60006002820490506001821680620003b457607f821691505b60208210811415620003cb57620003ca6200044e565b5b50919050565b6000620003de8262000391565b91507fffffffffffffffffffffffffffffffffffffffffffffffffffffffffffffffff8214156200041457620004136200041f565b5b600182019050919050565b7f4e487b7100000000000000000000000000000000000000000000000000000000600052601160045260246000fd5b7f4e487b7100000000000000000000000000000000000000000000000000000000600052602260045260246000fd5b7f4f6e6c792061646d696e2063616e20706572666f726d2074686973206163746960008201527f6f6e000000000000000000000000000000000000000000000000000000000000602082015250565b6113b380620004dc6000396000f3fe608060405234801561001057600080fd5b506004361061009e5760003560e01c80633477ee2e116100665780633477ee2e1461014b57806335b8e8201461017d578063462e91ec146101af578063a3ec138d146101cb578063f851a440146101fb5761009e565b80630121b93f146100a35780630deb56ab146100bf5780632bd87d49146100dd5780632d35a8a21461010d5780632e6997fe1461012b575b600080fd5b6100bd60048036038101906100b89190610c37565b610219565b005b6100c7610386565b6040516100d49190610f58565b60405180910390f35b6100f760048036038101906100f29190610c37565b610390565b6040516101049190610f58565b60405180910390f35b610115610409565b6040516101229190610f58565b60405180910390f35b61013361040f565b60405161014293929190610e91565b60405180910390f35b61016560048036038101906101609190610c37565b61074e565b60405161017493929190610f73565b60405180910390f35b61019760048036038101906101929190610c37565b610800565b6040516101a693929190610f73565b60405180910390f35b6101c960048036038101906101c49190610bf6565b610944565b005b6101e560048036038101906101e09190610bcd565b610a54565b6040516101f29190610edd565b60405180910390f35b610203610a74565b6040516102109190610e76565b60405180910390f35b600160003373ffffffffffffffffffffffffffffffffffffffff1673ffffffffffffffffffffffffffffffffffffffff16815260200190815260200160002060009054906101000a900460ff16156102a6576040517f08c379a000000000000000000000000000000000000000000000000000000000815260040161029d90610f38565b60405180910390fd5b600060026000838152602001908152602001600020600001541415610300576040517f08c379a00000000000000000000000000000000000000000000000000000000081526004016102f790610ef8565b60405180910390fd5b60018060003373ffffffffffffffffffffffffffffffffffffffff1673ffffffffffffffffffffffffffffffffffffffff16815260200190815260200160002060006101000a81548160ff02191690831515021790555060026000828152602001908152602001600020600201600081548092919061037e906111c7565b919050555050565b6000600354905090565b600080600260008481526020019081526020016000206000015414156103eb576040517f08c379a00000000000000000000000000000000000000000000000000000000081526004016103e290610ef8565b60405180910390fd5b60026000838152602001908152602001600020600201549050919050565b60035481565b6060806060600060035467ffffffffffffffff811115610458577f4e487b7100000000000000000000000000000000000000000000000000000000600052604160045260246000fd5b6040519080825280602002602001820160405280156104865781602001602082028036833780820191505090505b509050600060035467ffffffffffffffff8111156104cd577f4e487b7100000000000000000000000000000000000000000000000000000000600052604160045260246000fd5b60405190808252806020026020018201604052801561050057816020015b60608152602001906001900390816104eb5790505b509050600060035467ffffffffffffffff811115610547577f4e487b7100000000000000000000000000000000000000000000000000000000600052604160045260246000fd5b6040519080825280602002602001820160405280156105755781602001602082028036833780820191505090505b5090506000600190505b600354811161073c5760006002600083815260200190815260200160002090508060000154856001846105b291906110a6565b815181106105e9577f4e487b7100000000000000000000000000000000000000000000000000000000600052603260045260246000fd5b60200260200101818152505080600101805461060490611164565b80601f016020809104026020016040519081016040528092919081815260200182805461063090611164565b801561067d5780601f106106525761010080835404028352916020019161067d565b820191906000526020600020905b81548152906001019060200180831161066057829003601f168201915b50505050508460018461069091906110a6565b815181106106c7577f4e487b7100000000000000000000000000000000000000000000000000000000600052603260045260246000fd5b60200260200101819052508060020154836001846106e591906110a6565b8151811061071c577f4e487b7100000000000000000000000000000000000000000000000000000000600052603260045260246000fd5b602002602001018181525050508080610734906111c7565b91505061057f565b50828282955095509550505050909192565b600260205280600052604060002060009150905080600001549080600101805461077790611164565b80601f01602080910402602001604051908101604052809291908181526020018280546107a390611164565b80156107f05780601f106107c5576101008083540402835291602001916107f0565b820191906000526020600020905b8154815290600101906020018083116107d357829003601f168201915b5050505050908060020154905083565b600060606000806002600086815260200190815260200160002060000154141561085f576040517f08c379a000000000000000000000000000000000000000000000000000000000815260040161085690610ef8565b60405180910390fd5b6000600260008681526020019081526020016000206040518060600160405290816000820154815260200160018201805461089990611164565b80601f01602080910402602001604051908101604052809291908181526020018280546108c590611164565b80156109125780601f106108e757610100808354040283529160200191610912565b820191906000526020600020905b8154815290600101906020018083116108f557829003601f168201915b505050505081526020016002820154815250509050806000015181602001518260400151935093509350509193909250565b60008054906101000a900473ffffffffffffffffffffffffffffffffffffffff1673ffffffffffffffffffffffffffffffffffffffff163373ffffffffffffffffffffffffffffffffffffffff16146109d2576040517f08c379a00000000000000000000000000000000000000000000000000000000081526004016109c990610f18565b60405180910390fd5b600360008154809291906109e5906111c7565b9190505550604051806060016040528060035481526020018281526020016000815250600260006003548152602001908152602001600020600082015181600001556020820151816001019080519060200190610a43929190610a98565b506040820151816002015590505050565b60016020528060005260406000206000915054906101000a900460ff1681565b60008054906101000a900473ffffffffffffffffffffffffffffffffffffffff1681565b828054610aa490611164565b90600052602060002090601f016020900481019282610ac65760008555610b0d565b82601f10610adf57805160ff1916838001178555610b0d565b82800160010185558215610b0d579182015b82811115610b0c578251825591602001919060010190610af1565b5b509050610b1a9190610b1e565b5090565b5b80821115610b37576000816000905550600101610b1f565b5090565b6000610b4e610b4984610fd6565b610fb1565b905082815260208101848484011115610b6657600080fd5b610b71848285611122565b509392505050565b600081359050610b888161134f565b92915050565b600082601f830112610b9f57600080fd5b8135610baf848260208601610b3b565b91505092915050565b600081359050610bc781611366565b92915050565b600060208284031215610bdf57600080fd5b6000610bed84828501610b79565b91505092915050565b600060208284031215610c0857600080fd5b600082013567ffffffffffffffff811115610c2257600080fd5b610c2e84828501610b8e565b91505092915050565b600060208284031215610c4957600080fd5b6000610c5784828501610bb8565b91505092915050565b6000610c6c8383610d7d565b905092915050565b6000610c808383610e58565b60208301905092915050565b610c95816110da565b82525050565b6000610ca682611027565b610cb08185611062565b935083602082028501610cc285611007565b8060005b85811015610cfe5784840389528151610cdf8582610c60565b9450610cea83611048565b925060208a01995050600181019050610cc6565b50829750879550505050505092915050565b6000610d1b82611032565b610d258185611073565b9350610d3083611017565b8060005b83811015610d61578151610d488882610c74565b9750610d5383611055565b925050600181019050610d34565b5085935050505092915050565b610d77816110ec565b82525050565b6000610d888261103d565b610d928185611084565b9350610da2818560208601611131565b610dab8161129d565b840191505092915050565b6000610dc18261103d565b610dcb8185611095565b9350610ddb818560208601611131565b610de48161129d565b840191505092915050565b6000610dfc601883611095565b9150610e07826112ae565b602082019050919050565b6000610e1f602283611095565b9150610e2a826112d7565b604082019050919050565b6000610e42601683611095565b9150610e4d82611326565b602082019050919050565b610e6181611118565b82525050565b610e7081611118565b82525050565b6000602082019050610e8b6000830184610c8c565b92915050565b60006060820190508181036000830152610eab8186610d10565b90508181036020830152610ebf8185610c9b565b90508181036040830152610ed38184610d10565b9050949350505050565b6000602082019050610ef26000830184610d6e565b92915050565b60006020820190508181036000830152610f1181610def565b9050919050565b60006020820190508181036000830152610f3181610e12565b9050919050565b60006020820190508181036000830152610f5181610e35565b9050919050565b6000602082019050610f6d6000830184610e67565b92915050565b6000606082019050610f886000830186610e67565b8181036020830152610f9a8185610db6565b9050610fa96040830184610e67565b949350505050565b6000610fbb610fcc565b9050610fc78282611196565b919050565b6000604051905090565b600067ffffffffffffffff821115610ff157610ff061126e565b5b610ffa8261129d565b9050602081019050919050565b6000819050602082019050919050565b6000819050602082019050919050565b600081519050919050565b600081519050919050565b600081519050919050565b6000602082019050919050565b6000602082019050919050565b600082825260208201905092915050565b600082825260208201905092915050565b600082825260208201905092915050565b600082825260208201905092915050565b60006110b182611118565b91506110bc83611118565b9250828210156110cf576110ce611210565b5b828203905092915050565b60006110e5826110f8565b9050919050565b60008115159050919050565b600073ffffffffffffffffffffffffffffffffffffffff82169050919050565b6000819050919050565b82818337600083830152505050565b60005b8381101561114f578082015181840152602081019050611134565b8381111561115e576000848401525b50505050565b6000600282049050600182168061117c57607f821691505b602082108114156111905761118f61123f565b5b50919050565b61119f8261129d565b810181811067ffffffffffffffff821117156111be576111bd61126e565b5b80604052505050565b60006111d282611118565b91507fffffffffffffffffffffffffffffffffffffffffffffffffffffffffffffffff82141561120557611204611210565b5b600182019050919050565b7f4e487b7100000000000000000000000000000000000000000000000000000000600052601160045260246000fd5b7f4e487b7100000000000000000000000000000000000000000000000000000000600052602260045260246000fd5b7f4e487b7100000000000000000000000000000000000000000000000000000000600052604160045260246000fd5b6000601f19601f8301169050919050565b7f43616e64696461746520646f6573206e6f742065786973740000000000000000600082015250565b7f4f6e6c792061646d696e2063616e20706572666f726d2074686973206163746960008201527f6f6e000000000000000000000000000000000000000000000000000000000000602082015250565b7f596f75206861766520616c726561647920766f74656400000000000000000000600082015250565b611358816110da565b811461136357600080fd5b50565b61136f81611118565b811461137a57600080fd5b5056fea264697066735822122021953c26bfcde07e5bfa6b043a302796967cf2a85245c6c27a8cdcce21c4199564736f6c63430008040033",
  "immutableReferences": {},
  "source": "// SPDX-License-Identifier: MIT\r\npragma solidity ^0.8.0;\r\n\r\ncontract Voting {\r\n\r\n    struct Candidate {\r\n        uint256 id;\r\n        string name;\r\n        uint256 voteCount;\r\n    }\r\n\r\n    address public admin;\r\n\r\n    mapping(address => bool) public voters;\r\n    mapping(uint => Candidate) public candidates;\r\n    uint public candidatesCount;\r\n\r\n    constructor() {\r\n        admin = msg.sender; // Set the creator of the contract as the admin\r\n        addCandidate(\"Tshering Tobgay\");\r\n        addCandidate(\"Loday Tshering\");\r\n        addCandidate(\"Pema Chewang\");\r\n        addCandidate(\"Dorji Wangdi\");\r\n\r\n    }\r\n\r\n    modifier onlyAdmin() {\r\n        require(msg.sender == admin, \"Only admin can perform this action\");\r\n        _;\r\n    }\r\n\r\n    function addCandidate(string memory name) public onlyAdmin {\r\n        candidatesCount++;\r\n        candidates[candidatesCount] = Candidate(candidatesCount, name, 0);\r\n    }\r\n\r\n    function vote(uint candidateId) public {\r\n        require(!voters[msg.sender], \"You have already voted\");\r\n        require(candidates[candidateId].id != 0, \"Candidate does not exist\");\r\n\r\n        voters[msg.sender] = true;\r\n        candidates[candidateId].voteCount++;\r\n    }\r\n\r\n    function viewResults(uint candidateId) public view returns (uint) {\r\n        require(candidates[candidateId].id != 0, \"Candidate does not exist\");\r\n        return (candidates[candidateId].voteCount);\r\n    }\r\n\r\n    function getCandidate(uint candidateId) public view returns (uint, string memory, uint) {\r\n        require(candidates[candidateId].id != 0, \"Candidate does not exist\");\r\n        Candidate memory candidate = candidates[candidateId];\r\n        return (candidate.id, candidate.name, candidate.voteCount);\r\n    }\r\n    function getTotalCandidates() public view returns (uint) {\r\n        return candidatesCount;\r\n    }\r\n    function getAllCandidates() public view returns (uint[] memory, string[] memory, uint[] memory) {\r\n        uint[] memory ids = new uint[](candidatesCount);\r\n        string[] memory names = new string[](candidatesCount);\r\n        uint[] memory voteCounts = new uint[](candidatesCount);\r\n\r\n        for (uint i = 1; i <= candidatesCount; i++) {\r\n            Candidate storage candidate = candidates[i];\r\n            ids[i - 1] = candidate.id;\r\n            names[i - 1] = candidate.name;\r\n            voteCounts[i - 1] = candidate.voteCount;\r\n        }\r\n\r\n        return (ids, names, voteCounts);\r\n    }\r\n}\r\n",
  "sourcePath": "E:\\Workspace\\voting\\contracts\\voting.sol",
  "compiler": {
    "name": "solc",
    "version": "0.8.4+commit.c7e474f2.Emscripten.clang"
  },
  "schemaVersion": "3.4.16",
  "updatedAt": "2024-09-16T11:04:14.582Z",
  "networkType": "ethereum",
  "devdoc": {
    "kind": "dev",
    "methods": {},
    "version": 1
  },
  "userdoc": {
    "kind": "user",
    "methods": {},
    "version": 1
  }
}